:100000000C9434000C946E010C9451000C9451002B
:100010000C9451000C9451000C9451000C9451001C
:100020000C9451000C9451000C9451000C9451000C
:100030000C9451000C9451000C9451000C945100FC
:100040000C9451000C9451000C9451000C945100EC
:100050000C9451000C9459000C9451000C945100D4
:100060000C9451000C94510011241FBECFEFD8E026
:10007000DEBFCDBF11E0A0E0B1E0E4E4F6E002C0F5
:1000800005900D92A230B107D9F721E0A2E0B1E0CE
:1000900001C01D92AF30B207E1F70E94D7010C9466
:1000A00020030C94000028985F9808955E985D984E
:1000B00008958F939F938091780090917900909309
:1000C0000E0180930D019F918F9118959093C5001B
:1000D0008093C40088E18093C10086E08093C200D1
:1000E00008958091C000880F990B97FB882780F9AD
:1000F00090E008958091C00087FF03C08091C60002
:10010000089580E008959091C00095FFFCCF809302
:10011000C60008950F931F93CF93DF9300D000D0B4
:1001200000D0CDB7DEB74AE0BE016F5F7F4F0E94BF
:10013000EB028E010F5F1F4FF8018081811111C00A
:100140008DE00E9483008AE00E9483000F900F9050
:100150000F900F900F900F90DF91CF911F910F9103
:1001600008950F5F1F4F0E948300E6CF84B1876020
:1001700084B98AB1806E8AB987B18F6087B9529885
:100180005A9A85B1887F85B98BB18F718BB94398A5
:1001900088B1876088B9089581EA809380008BE0F8
:1001A00080938100109289001092880010928B0039
:1001B00010928A000895813021F0823029F00C9449
:1001C0005300289A5F98089528985F9A089581307F
:1001D00021F0823029F00C9456005E9A5D980895C3
:1001E0005E985D9A089590E09093890080938800CE
:1001F000089590E090938B0080938A000895439A2D
:100200000895439808958135A9F13CF4863461F04E
:100210008C3401F18234C9F008958335F9F08735C3
:1002200059F18235C9F0089581E00E94DB0081E038
:100230000E94E70088EC90E090938900809388000A
:1002400090938B0080938A00089582E00E94DB00E7
:1002500082E0EECF82E0E9CF81E0F8CF1092890012
:100260001092880010928B0010928A000E94530016
:100270000C9456000C94FF000C94010198B1987FE7
:1002800098B9811539F0409A813021F0419A823035
:1002900009F0429A089583E08093000110920B01C7
:1002A00010920A0110920C011092020110920301A7
:1002B0001092040110920501809100010E943E01FC
:1002C000109289001092880010928B0010928A0080
:1002D0000E9453000E9456000C9401011F920F923D
:1002E0000FB60F9211242F933F934F935F936F9309
:1002F0007F938F939F93AF93BF93EF93FF93CF938E
:10030000DF9300D000D000D0CDB7DEB71E821D82B3
:100310008D819E81883B9B4060F10E944B01E89853
:1003200019821A821B821C8289819A81AB81BC81CD
:1003300080329E44A105B10510F44A9B22C0E89A80
:100340000F900F900F900F900F900F90DF91CF9123
:10035000FF91EF91BF91AF919F918F917F916F919D
:100360005F914F913F912F910F900FBE0F901F9073
:1003700018954A99E5CF8D819E8101969E838D8344
:10038000C7CF89819A81AB81BC810196A11DB11D26
:1003900089839A83AB83BC83C7CF8F70806480933B
:1003A0007C008FEE80937A0010927B000895F89481
:1003B0000E94B6000E94CC0087E690E00E94660092
:1003C00085E00E94CD01809169008E7F8093690055
:1003D00080916900826080936900E89A789483E054
:1003E0008093000110920B0110920A011092890073
:1003F0001092880010928B0010928A000E940101D6
:10040000809100010E943E01E12CF12C6701C2E0C5
:10041000D0E001E010E080910A0190910B01892B5E
:1004200009F0C4C080910C018111C0C080910D0100
:1004300090910E018C32914008F0B8C081E0809319
:100440000C01809100018115A1F180910001815082
:1004500080930001809100010E943E01109289006A
:100460001092880010928B0010928A000E94530014
:100470000E9456000E94010180910001811509F43B
:1004800090C010930B0100930A0180910601909196
:100490000701A0910801B09109018854944FAF4F12
:1004A000BF4F8093020190930301A0930401B09386
:1004B000050180910A0190910B01019761F510925D
:1004C00089001092880010928B0010928A000E947E
:1004D00053000E9456000E940101809106019091F4
:1004E0000701A0910801B0910901409102015091CA
:1004F00003016091040170910501841B950BA60B0B
:10050000B70B4AF080910001811509F45FC0109289
:100510000B0110920A018091C00087FF0AC00E945F
:100520007A0020910A0130910B01232B11F40E94D3
:1005300003018090060190900701A0900801B090FF
:100540000901C401D5018C199D09AE09BF09843F79
:100550009140A105B10540F080910D0190910E01EF
:100560000E948A00640175018FEF90E722E08150BC
:1005700090402040E1F700C000008091060190917A
:100580000701A0910801B0910901C296A11DB11DFA
:100590008093060190930701A0930801B09309018D
:1005A0003ACFD0930B01C0930A0183CF80910C0105
:1005B000811509F47ECF80910D0190910E01853552
:1005C000914008F476CF10920C0173CFD0930B01B9
:1005D000C0930A01A0CFBB274A3031F4992322F4FB
:1005E000BDE2909581959F4F0C94F702BB27FB01CC
:1005F0005527AA27880F991FAA1FA41710F0A41B1C
:1006000083955051B9F7A05DAA3308F0A95DA19375
:10061000009779F7B111B1931192CB010C941003AB
:10062000DC01FC01672F71917723E1F7329704C059
:100630007C916D9370836291AE17BF07C8F30895E4
:04064000F894FFCF5C
:020644000300B1
:00000001FF
